{
    "contractName": "VotingFactory",
    "abi": [
        {
            "inputs": [],
            "stateMutability": "nonpayable",
            "type": "constructor"
        },
        {
            "anonymous": false,
            "inputs": [
                {
                    "indexed": false,
                    "internalType": "address",
                    "name": "deployer",
                    "type": "address"
                },
                {
                    "indexed": false,
                    "internalType": "address",
                    "name": "addr",
                    "type": "address"
                }
            ],
            "name": "PollCreated",
            "type": "event"
        },
        {
            "inputs": [
                {
                    "internalType": "uint256",
                    "name": "",
                    "type": "uint256"
                }
            ],
            "name": "allPolls",
            "outputs": [
                {
                    "internalType": "address",
                    "name": "",
                    "type": "address"
                }
            ],
            "stateMutability": "view",
            "type": "function"
        },
        {
            "inputs": [
                {
                    "internalType": "uint256",
                    "name": "",
                    "type": "uint256"
                }
            ],
            "name": "titles",
            "outputs": [
                {
                    "internalType": "string",
                    "name": "",
                    "type": "string"
                }
            ],
            "stateMutability": "view",
            "type": "function"
        },
        {
            "inputs": [],
            "name": "getAllPolls",
            "outputs": [
                {
                    "internalType": "address[]",
                    "name": "",
                    "type": "address[]"
                }
            ],
            "stateMutability": "view",
            "type": "function"
        },
        {
            "inputs": [],
            "name": "getTitles",
            "outputs": [
                {
                    "internalType": "string[]",
                    "name": "",
                    "type": "string[]"
                }
            ],
            "stateMutability": "view",
            "type": "function"
        },
        {
            "inputs": [
                {
                    "internalType": "string",
                    "name": "_title",
                    "type": "string"
                },
                {
                    "internalType": "string[]",
                    "name": "_options",
                    "type": "string[]"
                }
            ],
            "name": "newVotingPoll",
            "outputs": [
                {
                    "internalType": "address",
                    "name": "votingPoll",
                    "type": "address"
                }
            ],
            "stateMutability": "nonpayable",
            "type": "function"
        },
        {
            "inputs": [],
            "name": "getPollsCount",
            "outputs": [
                {
                    "internalType": "uint256",
                    "name": "cnt",
                    "type": "uint256"
                }
            ],
            "stateMutability": "view",
            "type": "function"
        }
    ],
    "bytecode": "0x608060405234801561001057600080fd5b50600060028190555061217d806100286000396000f3fe60806040523480156200001157600080fd5b50600436106200006a5760003560e01c80632cda1bf7146200006f57806332b633fa14620000a5578063637cd87414620000c75780636be30e5414620000fd5780639f7fde49146200011f578063e09959161462000155575b600080fd5b6200008d6004803603810190620000879190620007b5565b62000177565b6040516200009c919062000a94565b60405180910390f35b620000af6200022c565b604051620000be919062000a4c565b60405180910390f35b620000e56004803603810190620000df9190620007b5565b620002bc565b604051620000f49190620009b7565b60405180910390f35b62000107620002fc565b60405162000116919062000a70565b60405180910390f35b6200013d600480360381019062000137919062000730565b620003df565b6040516200014c9190620009b7565b60405180910390f35b6200015f62000502565b6040516200016e919062000ab8565b60405180910390f35b600181815481106200018857600080fd5b906000526020600020016000915090508054620001a59062000c85565b80601f0160208091040260200160405190810160405280929190818152602001828054620001d39062000c85565b8015620002245780601f10620001f85761010080835404028352916020019162000224565b820191906000526020600020905b8154815290600101906020018083116200020657829003601f168201915b505050505081565b60606000805480602002602001604051908101604052809291908181526020018280548015620002b257602002820191906000526020600020905b8160009054906101000a900473ffffffffffffffffffffffffffffffffffffffff1673ffffffffffffffffffffffffffffffffffffffff168152602001906001019080831162000267575b5050505050905090565b60008181548110620002cd57600080fd5b906000526020600020016000915054906101000a900473ffffffffffffffffffffffffffffffffffffffff1681565b60606001805480602002602001604051908101604052809291908181526020016000905b82821015620003d6578382906000526020600020018054620003429062000c85565b80601f0160208091040260200160405190810160405280929190818152602001828054620003709062000c85565b8015620003c15780601f106200039557610100808354040283529160200191620003c1565b820191906000526020600020905b815481529060010190602001808311620003a357829003601f168201915b50505050508152602001906001019062000320565b50505050905090565b6000338383604051620003f2906200050e565b620004009392919062000a01565b604051809103906000f0801580156200041d573d6000803e3d6000fd5b5090506000819080600181540180825580915050600190039060005260206000200160009091909190916101000a81548173ffffffffffffffffffffffffffffffffffffffff021916908373ffffffffffffffffffffffffffffffffffffffff160217905550600183908060018154018082558091505060019003906000526020600020016000909190919091509080519060200190620004c09291906200051c565b507f5b850d927499bc55df3941f7c4ae97ab6fce34a21f4df0ab30694f24353445b23382604051620004f4929190620009d4565b60405180910390a192915050565b60008080549050905090565b6113b48062000d9483390190565b8280546200052a9062000c85565b90600052602060002090601f0160209004810192826200054e57600085556200059a565b82601f106200056957805160ff19168380011785556200059a565b828001600101855582156200059a579182015b82811115620005995782518255916020019190600101906200057c565b5b509050620005a99190620005ad565b5090565b5b80821115620005c8576000816000905550600101620005ae565b5090565b6000620005e3620005dd8462000afe565b62000ad5565b9050808382526020820190508285602086028201111562000609576200060862000d54565b5b60005b858110156200065e57813567ffffffffffffffff81111562000633576200063262000d4f565b5b808601620006428982620006e6565b855260208501945060208401935050506001810190506200060c565b5050509392505050565b60006200067f620006798462000b2d565b62000ad5565b9050828152602081018484840111156200069e576200069d62000d59565b5b620006ab84828562000c40565b509392505050565b600082601f830112620006cb57620006ca62000d4f565b5b8135620006dd848260208601620005cc565b91505092915050565b600082601f830112620006fe57620006fd62000d4f565b5b81356200071084826020860162000668565b91505092915050565b6000813590506200072a8162000d79565b92915050565b600080604083850312156200074a576200074962000d63565b5b600083013567ffffffffffffffff8111156200076b576200076a62000d5e565b5b6200077985828601620006e6565b925050602083013567ffffffffffffffff8111156200079d576200079c62000d5e565b5b620007ab85828601620006b3565b9150509250929050565b600060208284031215620007ce57620007cd62000d63565b5b6000620007de8482850162000719565b91505092915050565b6000620007f5838362000817565b60208301905092915050565b60006200080f838362000924565b905092915050565b620008228162000c02565b82525050565b620008338162000c02565b82525050565b6000620008468262000b83565b62000852818562000bbe565b93506200085f8362000b63565b8060005b83811015620008965781516200087a8882620007e7565b9750620008878362000ba4565b92505060018101905062000863565b5085935050505092915050565b6000620008b08262000b8e565b620008bc818562000bcf565b935083602082028501620008d08562000b73565b8060005b85811015620009125784840389528151620008f0858262000801565b9450620008fd8362000bb1565b925060208a01995050600181019050620008d4565b50829750879550505050505092915050565b6000620009318262000b99565b6200093d818562000be0565b93506200094f81856020860162000c4f565b6200095a8162000d68565b840191505092915050565b6000620009728262000b99565b6200097e818562000bf1565b93506200099081856020860162000c4f565b6200099b8162000d68565b840191505092915050565b620009b18162000c36565b82525050565b6000602082019050620009ce600083018462000828565b92915050565b6000604082019050620009eb600083018562000828565b620009fa602083018462000828565b9392505050565b600060608201905062000a18600083018662000828565b818103602083015262000a2c818562000965565b9050818103604083015262000a428184620008a3565b9050949350505050565b6000602082019050818103600083015262000a68818462000839565b905092915050565b6000602082019050818103600083015262000a8c8184620008a3565b905092915050565b6000602082019050818103600083015262000ab0818462000965565b905092915050565b600060208201905062000acf6000830184620009a6565b92915050565b600062000ae162000af4565b905062000aef828262000cbb565b919050565b6000604051905090565b600067ffffffffffffffff82111562000b1c5762000b1b62000d20565b5b602082029050602081019050919050565b600067ffffffffffffffff82111562000b4b5762000b4a62000d20565b5b62000b568262000d68565b9050602081019050919050565b6000819050602082019050919050565b6000819050602082019050919050565b600081519050919050565b600081519050919050565b600081519050919050565b6000602082019050919050565b6000602082019050919050565b600082825260208201905092915050565b600082825260208201905092915050565b600082825260208201905092915050565b600082825260208201905092915050565b600062000c0f8262000c16565b9050919050565b600073ffffffffffffffffffffffffffffffffffffffff82169050919050565b6000819050919050565b82818337600083830152505050565b60005b8381101562000c6f57808201518184015260208101905062000c52565b8381111562000c7f576000848401525b50505050565b6000600282049050600182168062000c9e57607f821691505b6020821081141562000cb55762000cb462000cf1565b5b50919050565b62000cc68262000d68565b810181811067ffffffffffffffff8211171562000ce85762000ce762000d20565b5b80604052505050565b7f4e487b7100000000000000000000000000000000000000000000000000000000600052602260045260246000fd5b7f4e487b7100000000000000000000000000000000000000000000000000000000600052604160045260246000fd5b600080fd5b600080fd5b600080fd5b600080fd5b600080fd5b6000601f19601f8301169050919050565b62000d848162000c36565b811462000d9057600080fd5b5056fe60806040523480156200001157600080fd5b50604051620013b4380380620013b48339818101604052810190620000379190620003b6565b826000806101000a81548173ffffffffffffffffffffffffffffffffffffffff021916908373ffffffffffffffffffffffffffffffffffffffff16021790555081600190805190602001906200008f929190620000cd565b508060029080519060200190620000a89291906200015e565b506001600360006101000a81548160ff02191690831515021790555050505062000656565b828054620000db9062000548565b90600052602060002090601f016020900481019282620000ff57600085556200014b565b82601f106200011a57805160ff19168380011785556200014b565b828001600101855582156200014b579182015b828111156200014a5782518255916020019190600101906200012d565b5b5090506200015a9190620001c5565b5090565b828054828255906000526020600020908101928215620001b2579160200282015b82811115620001b1578251829080519060200190620001a0929190620000cd565b50916020019190600101906200017f565b5b509050620001c19190620001e4565b5090565b5b80821115620001e0576000816000905550600101620001c6565b5090565b5b80821115620002085760008181620001fe91906200020c565b50600101620001e5565b5090565b5080546200021a9062000548565b6000825580601f106200022e57506200024f565b601f0160209004906000526020600020908101906200024e9190620001c5565b5b50565b600062000269620002638462000479565b62000450565b905080838252602082019050828560208602820111156200028f576200028e62000617565b5b60005b85811015620002e457815167ffffffffffffffff811115620002b957620002b862000612565b5b808601620002c8898262000383565b8552602085019450602084019350505060018101905062000292565b5050509392505050565b600062000305620002ff84620004a8565b62000450565b9050828152602081018484840111156200032457620003236200061c565b5b6200033184828562000512565b509392505050565b6000815190506200034a816200063c565b92915050565b600082601f83011262000368576200036762000612565b5b81516200037a84826020860162000252565b91505092915050565b600082601f8301126200039b576200039a62000612565b5b8151620003ad848260208601620002ee565b91505092915050565b600080600060608486031215620003d257620003d162000626565b5b6000620003e28682870162000339565b935050602084015167ffffffffffffffff81111562000406576200040562000621565b5b620004148682870162000383565b925050604084015167ffffffffffffffff81111562000438576200043762000621565b5b620004468682870162000350565b9150509250925092565b60006200045c6200046f565b90506200046a82826200057e565b919050565b6000604051905090565b600067ffffffffffffffff821115620004975762000496620005e3565b5b602082029050602081019050919050565b600067ffffffffffffffff821115620004c657620004c5620005e3565b5b620004d1826200062b565b9050602081019050919050565b6000620004eb82620004f2565b9050919050565b600073ffffffffffffffffffffffffffffffffffffffff82169050919050565b60005b838110156200053257808201518184015260208101905062000515565b8381111562000542576000848401525b50505050565b600060028204905060018216806200056157607f821691505b60208210811415620005785762000577620005b4565b5b50919050565b62000589826200062b565b810181811067ffffffffffffffff82111715620005ab57620005aa620005e3565b5b80604052505050565b7f4e487b7100000000000000000000000000000000000000000000000000000000600052602260045260246000fd5b7f4e487b7100000000000000000000000000000000000000000000000000000000600052604160045260246000fd5b600080fd5b600080fd5b600080fd5b600080fd5b600080fd5b6000601f19601f8301169050919050565b6200064781620004de565b81146200065357600080fd5b50565b610d4e80620006666000396000f3fe608060405234801561001057600080fd5b50600436106100a95760003560e01c8063995e433911610071578063995e433914610156578063cc2ee19614610186578063cca7a11c146101a4578063f3cdcd1e146101c2578063fd4a77f1146101cc578063ff3c1a8f146101e8576100a9565b806319f41a40146100ae578063409e2205146100cc5780634e69d560146100fc578063711e6eed1461011a578063893d20e814610138575b600080fd5b6100b6610206565b6040516100c391906109b5565b60405180910390f35b6100e660048036038101906100e19190610797565b610219565b6040516100f391906109d0565b60405180910390f35b6101046102c5565b60405161011191906109b5565b60405180910390f35b6101226102dc565b60405161012f91906109d0565b60405180910390f35b61014061036a565b60405161014d9190610978565b60405180910390f35b610170600480360381019061016b9190610797565b610393565b60405161017d9190610a72565b60405180910390f35b61018e6103b0565b60405161019b9190610993565b60405180910390f35b6101ac610489565b6040516101b99190610a72565b60405180910390f35b6101ca610496565b005b6101e660048036038101906101e19190610797565b610597565b005b6101f06106f0565b6040516101fd91906109d0565b60405180910390f35b600360009054906101000a900460ff1681565b6002818154811061022957600080fd5b90600052602060002001600091509050805461024490610b6e565b80601f016020809104026020016040519081016040528092919081815260200182805461027090610b6e565b80156102bd5780601f10610292576101008083540402835291602001916102bd565b820191906000526020600020905b8154815290600101906020018083116102a057829003601f168201915b505050505081565b6000600360009054906101000a900460ff16905090565b600180546102e990610b6e565b80601f016020809104026020016040519081016040528092919081815260200182805461031590610b6e565b80156103625780601f1061033757610100808354040283529160200191610362565b820191906000526020600020905b81548152906001019060200180831161034557829003601f168201915b505050505081565b60008060009054906101000a900473ffffffffffffffffffffffffffffffffffffffff16905090565b600060056000838152602001908152602001600020549050919050565b60606002805480602002602001604051908101604052809291908181526020016000905b828210156104805783829060005260206000200180546103f390610b6e565b80601f016020809104026020016040519081016040528092919081815260200182805461041f90610b6e565b801561046c5780601f106104415761010080835404028352916020019161046c565b820191906000526020600020905b81548152906001019060200180831161044f57829003601f168201915b5050505050815260200190600101906103d4565b50505050905090565b6000600280549050905090565b60008054906101000a900473ffffffffffffffffffffffffffffffffffffffff1673ffffffffffffffffffffffffffffffffffffffff163373ffffffffffffffffffffffffffffffffffffffff1614610524576040517f08c379a000000000000000000000000000000000000000000000000000000000815260040161051b90610a32565b60405180910390fd5b60011515600360009054906101000a900460ff1615151461057a576040517f08c379a000000000000000000000000000000000000000000000000000000000815260040161057190610a12565b60405180910390fd5b6000600360006101000a81548160ff021916908315150217905550565b6000600460003373ffffffffffffffffffffffffffffffffffffffff1673ffffffffffffffffffffffffffffffffffffffff1681526020019081526020016000205414610619576040517f08c379a0000000000000000000000000000000000000000000000000000000008152600401610610906109f2565b60405180910390fd5b60011515600360009054906101000a900460ff1615151461066f576040517f08c379a000000000000000000000000000000000000000000000000000000000815260040161066690610a52565b60405180910390fd5b600460003373ffffffffffffffffffffffffffffffffffffffff1673ffffffffffffffffffffffffffffffffffffffff16815260200190815260200160002060008154809291906106bf90610ba0565b91905055506005600082815260200190815260200160002060008154809291906106e890610ba0565b919050555050565b6060600180546106ff90610b6e565b80601f016020809104026020016040519081016040528092919081815260200182805461072b90610b6e565b80156107785780601f1061074d57610100808354040283529160200191610778565b820191906000526020600020905b81548152906001019060200180831161075b57829003601f168201915b5050505050905090565b60008135905061079181610d01565b92915050565b6000602082840312156107ad576107ac610c47565b5b60006107bb84828501610782565b91505092915050565b60006107d0838361086b565b905092915050565b6107e181610af3565b82525050565b60006107f282610a9d565b6107fc8185610ac0565b93508360208202850161080e85610a8d565b8060005b8581101561084a578484038952815161082b85826107c4565b945061083683610ab3565b925060208a01995050600181019050610812565b50829750879550505050505092915050565b61086581610b05565b82525050565b600061087682610aa8565b6108808185610ad1565b9350610890818560208601610b3b565b61089981610c4c565b840191505092915050565b60006108af82610aa8565b6108b98185610ae2565b93506108c9818560208601610b3b565b6108d281610c4c565b840191505092915050565b60006108ea601c83610ae2565b91506108f582610c5d565b602082019050919050565b600061090d602083610ae2565b915061091882610c86565b602082019050919050565b6000610930601183610ae2565b915061093b82610caf565b602082019050919050565b6000610953601e83610ae2565b915061095e82610cd8565b602082019050919050565b61097281610b31565b82525050565b600060208201905061098d60008301846107d8565b92915050565b600060208201905081810360008301526109ad81846107e7565b905092915050565b60006020820190506109ca600083018461085c565b92915050565b600060208201905081810360008301526109ea81846108a4565b905092915050565b60006020820190508181036000830152610a0b816108dd565b9050919050565b60006020820190508181036000830152610a2b81610900565b9050919050565b60006020820190508181036000830152610a4b81610923565b9050919050565b60006020820190508181036000830152610a6b81610946565b9050919050565b6000602082019050610a876000830184610969565b92915050565b6000819050602082019050919050565b600081519050919050565b600081519050919050565b6000602082019050919050565b600082825260208201905092915050565b600082825260208201905092915050565b600082825260208201905092915050565b6000610afe82610b11565b9050919050565b60008115159050919050565b600073ffffffffffffffffffffffffffffffffffffffff82169050919050565b6000819050919050565b60005b83811015610b59578082015181840152602081019050610b3e565b83811115610b68576000848401525b50505050565b60006002820490506001821680610b8657607f821691505b60208210811415610b9a57610b99610c18565b5b50919050565b6000610bab82610b31565b91507fffffffffffffffffffffffffffffffffffffffffffffffffffffffffffffffff821415610bde57610bdd610be9565b5b600182019050919050565b7f4e487b7100000000000000000000000000000000000000000000000000000000600052601160045260246000fd5b7f4e487b7100000000000000000000000000000000000000000000000000000000600052602260045260246000fd5b600080fd5b6000601f19601f8301169050919050565b7f43616e2774206a6f696e20747769636520696e206f6e6520706f6c6c00000000600082015250565b7f5468697320766f74696e67207761732066696e6973686564206265666f72652e600082015250565b7f596f75277265206e6f74206f776e657221000000000000000000000000000000600082015250565b7f5468697320766f746520697320616c72656164792066696e69736865642e0000600082015250565b610d0a81610b31565b8114610d1557600080fd5b5056fea2646970667358221220dabe51d28871bc370c376c38a5e48e88ef66354970261fe17001e42d37157f6b64736f6c63430008070033a2646970667358221220abcd995bea5e00fec400c8fe28f8f93c417a96d68c40726b1dd68a84fb4dd8ed64736f6c63430008070033",
    "immutableReferences": {},
    "source": "// SPDX-License-Identifier: MIT\r\n\r\npragma solidity ^0.8.4;\r\n\r\nimport \"./VotingPoll.sol\";\r\n\r\ncontract VotingFactory {\r\n    address[] public allPolls;\r\n    string[] public titles;\r\n    uint pollCounts;\r\n    \r\n    event PollCreated(address deployer, address addr);\r\n\r\n    constructor () {\r\n        pollCounts = 0;\r\n    }\r\n\r\n    function getAllPolls() external view returns(address[] memory) {\r\n        return allPolls;\r\n    }\r\n\r\n    function getTitles() external view returns(string[] memory) {\r\n        return titles;\r\n    }\r\n\r\n    function newVotingPoll(string memory _title, string[] memory _options) external returns(address votingPoll) {\r\n        votingPoll = address(new VotingPoll(msg.sender, _title, _options));\r\n        allPolls.push(votingPoll);\r\n        titles.push(_title);\r\n        emit PollCreated(msg.sender, votingPoll);\r\n        return votingPoll;\r\n    }\r\n\r\n    function getPollsCount () external view returns(uint256 cnt) {\r\n        return allPolls.length;\r\n    }\r\n}",
    "sourcePath": "E:\\git\\sugarlandContracts\\voting-contract\\contracts\\VotingFactory.sol",
    "compiler": {
        "name": "solc",
        "version": "0.8.7+commit.e28d00a7.Emscripten.clang"
    },
    "schemaVersion": "3.4.4",
    "updatedAt": "2022-06-10T18:16:47.610Z",
    "devdoc": {
        "kind": "dev",
        "methods": {},
        "version": 1
    },
    "userdoc": {
        "kind": "user",
        "methods": {},
        "version": 1
    }
}