{
    "contractName": "VotingPoll",
    "abi": [
        {
            "inputs": [
                {
                    "internalType": "address",
                    "name": "_creater",
                    "type": "address"
                },
                {
                    "internalType": "string",
                    "name": "_title",
                    "type": "string"
                },
                {
                    "internalType": "string[]",
                    "name": "_options",
                    "type": "string[]"
                }
            ],
            "stateMutability": "nonpayable",
            "type": "constructor"
        },
        {
            "inputs": [
                {
                    "internalType": "uint256",
                    "name": "",
                    "type": "uint256"
                }
            ],
            "name": "options",
            "outputs": [
                {
                    "internalType": "string",
                    "name": "",
                    "type": "string"
                }
            ],
            "stateMutability": "view",
            "type": "function"
        },
        {
            "inputs": [],
            "name": "votingStatus",
            "outputs": [
                {
                    "internalType": "bool",
                    "name": "",
                    "type": "bool"
                }
            ],
            "stateMutability": "view",
            "type": "function"
        },
        {
            "inputs": [],
            "name": "votingTitle",
            "outputs": [
                {
                    "internalType": "string",
                    "name": "",
                    "type": "string"
                }
            ],
            "stateMutability": "view",
            "type": "function"
        },
        {
            "inputs": [],
            "name": "getOwner",
            "outputs": [
                {
                    "internalType": "address",
                    "name": "",
                    "type": "address"
                }
            ],
            "stateMutability": "view",
            "type": "function"
        },
        {
            "inputs": [],
            "name": "getTitle",
            "outputs": [
                {
                    "internalType": "string",
                    "name": "",
                    "type": "string"
                }
            ],
            "stateMutability": "view",
            "type": "function"
        },
        {
            "inputs": [],
            "name": "getOptions",
            "outputs": [
                {
                    "internalType": "string[]",
                    "name": "",
                    "type": "string[]"
                }
            ],
            "stateMutability": "view",
            "type": "function"
        },
        {
            "inputs": [],
            "name": "getStatus",
            "outputs": [
                {
                    "internalType": "bool",
                    "name": "",
                    "type": "bool"
                }
            ],
            "stateMutability": "view",
            "type": "function"
        },
        {
            "inputs": [],
            "name": "getOptionCounts",
            "outputs": [
                {
                    "internalType": "uint256",
                    "name": "",
                    "type": "uint256"
                }
            ],
            "stateMutability": "view",
            "type": "function"
        },
        {
            "inputs": [
                {
                    "internalType": "uint256",
                    "name": "_id",
                    "type": "uint256"
                }
            ],
            "name": "getResult",
            "outputs": [
                {
                    "internalType": "uint256",
                    "name": "",
                    "type": "uint256"
                }
            ],
            "stateMutability": "view",
            "type": "function"
        },
        {
            "inputs": [],
            "name": "pauseVoting",
            "outputs": [],
            "stateMutability": "nonpayable",
            "type": "function"
        },
        {
            "inputs": [
                {
                    "internalType": "uint256",
                    "name": "_value",
                    "type": "uint256"
                }
            ],
            "name": "voting",
            "outputs": [],
            "stateMutability": "nonpayable",
            "type": "function"
        }
    ],
    "bytecode": "0x60806040523480156200001157600080fd5b50604051620013b4380380620013b48339818101604052810190620000379190620003b6565b826000806101000a81548173ffffffffffffffffffffffffffffffffffffffff021916908373ffffffffffffffffffffffffffffffffffffffff16021790555081600190805190602001906200008f929190620000cd565b508060029080519060200190620000a89291906200015e565b506001600360006101000a81548160ff02191690831515021790555050505062000656565b828054620000db9062000548565b90600052602060002090601f016020900481019282620000ff57600085556200014b565b82601f106200011a57805160ff19168380011785556200014b565b828001600101855582156200014b579182015b828111156200014a5782518255916020019190600101906200012d565b5b5090506200015a9190620001c5565b5090565b828054828255906000526020600020908101928215620001b2579160200282015b82811115620001b1578251829080519060200190620001a0929190620000cd565b50916020019190600101906200017f565b5b509050620001c19190620001e4565b5090565b5b80821115620001e0576000816000905550600101620001c6565b5090565b5b80821115620002085760008181620001fe91906200020c565b50600101620001e5565b5090565b5080546200021a9062000548565b6000825580601f106200022e57506200024f565b601f0160209004906000526020600020908101906200024e9190620001c5565b5b50565b600062000269620002638462000479565b62000450565b905080838252602082019050828560208602820111156200028f576200028e62000617565b5b60005b85811015620002e457815167ffffffffffffffff811115620002b957620002b862000612565b5b808601620002c8898262000383565b8552602085019450602084019350505060018101905062000292565b5050509392505050565b600062000305620002ff84620004a8565b62000450565b9050828152602081018484840111156200032457620003236200061c565b5b6200033184828562000512565b509392505050565b6000815190506200034a816200063c565b92915050565b600082601f83011262000368576200036762000612565b5b81516200037a84826020860162000252565b91505092915050565b600082601f8301126200039b576200039a62000612565b5b8151620003ad848260208601620002ee565b91505092915050565b600080600060608486031215620003d257620003d162000626565b5b6000620003e28682870162000339565b935050602084015167ffffffffffffffff81111562000406576200040562000621565b5b620004148682870162000383565b925050604084015167ffffffffffffffff81111562000438576200043762000621565b5b620004468682870162000350565b9150509250925092565b60006200045c6200046f565b90506200046a82826200057e565b919050565b6000604051905090565b600067ffffffffffffffff821115620004975762000496620005e3565b5b602082029050602081019050919050565b600067ffffffffffffffff821115620004c657620004c5620005e3565b5b620004d1826200062b565b9050602081019050919050565b6000620004eb82620004f2565b9050919050565b600073ffffffffffffffffffffffffffffffffffffffff82169050919050565b60005b838110156200053257808201518184015260208101905062000515565b8381111562000542576000848401525b50505050565b600060028204905060018216806200056157607f821691505b60208210811415620005785762000577620005b4565b5b50919050565b62000589826200062b565b810181811067ffffffffffffffff82111715620005ab57620005aa620005e3565b5b80604052505050565b7f4e487b7100000000000000000000000000000000000000000000000000000000600052602260045260246000fd5b7f4e487b7100000000000000000000000000000000000000000000000000000000600052604160045260246000fd5b600080fd5b600080fd5b600080fd5b600080fd5b600080fd5b6000601f19601f8301169050919050565b6200064781620004de565b81146200065357600080fd5b50565b610d4e80620006666000396000f3fe608060405234801561001057600080fd5b50600436106100a95760003560e01c8063995e433911610071578063995e433914610156578063cc2ee19614610186578063cca7a11c146101a4578063f3cdcd1e146101c2578063fd4a77f1146101cc578063ff3c1a8f146101e8576100a9565b806319f41a40146100ae578063409e2205146100cc5780634e69d560146100fc578063711e6eed1461011a578063893d20e814610138575b600080fd5b6100b6610206565b6040516100c391906109b5565b60405180910390f35b6100e660048036038101906100e19190610797565b610219565b6040516100f391906109d0565b60405180910390f35b6101046102c5565b60405161011191906109b5565b60405180910390f35b6101226102dc565b60405161012f91906109d0565b60405180910390f35b61014061036a565b60405161014d9190610978565b60405180910390f35b610170600480360381019061016b9190610797565b610393565b60405161017d9190610a72565b60405180910390f35b61018e6103b0565b60405161019b9190610993565b60405180910390f35b6101ac610489565b6040516101b99190610a72565b60405180910390f35b6101ca610496565b005b6101e660048036038101906101e19190610797565b610597565b005b6101f06106f0565b6040516101fd91906109d0565b60405180910390f35b600360009054906101000a900460ff1681565b6002818154811061022957600080fd5b90600052602060002001600091509050805461024490610b6e565b80601f016020809104026020016040519081016040528092919081815260200182805461027090610b6e565b80156102bd5780601f10610292576101008083540402835291602001916102bd565b820191906000526020600020905b8154815290600101906020018083116102a057829003601f168201915b505050505081565b6000600360009054906101000a900460ff16905090565b600180546102e990610b6e565b80601f016020809104026020016040519081016040528092919081815260200182805461031590610b6e565b80156103625780601f1061033757610100808354040283529160200191610362565b820191906000526020600020905b81548152906001019060200180831161034557829003601f168201915b505050505081565b60008060009054906101000a900473ffffffffffffffffffffffffffffffffffffffff16905090565b600060056000838152602001908152602001600020549050919050565b60606002805480602002602001604051908101604052809291908181526020016000905b828210156104805783829060005260206000200180546103f390610b6e565b80601f016020809104026020016040519081016040528092919081815260200182805461041f90610b6e565b801561046c5780601f106104415761010080835404028352916020019161046c565b820191906000526020600020905b81548152906001019060200180831161044f57829003601f168201915b5050505050815260200190600101906103d4565b50505050905090565b6000600280549050905090565b60008054906101000a900473ffffffffffffffffffffffffffffffffffffffff1673ffffffffffffffffffffffffffffffffffffffff163373ffffffffffffffffffffffffffffffffffffffff1614610524576040517f08c379a000000000000000000000000000000000000000000000000000000000815260040161051b90610a32565b60405180910390fd5b60011515600360009054906101000a900460ff1615151461057a576040517f08c379a000000000000000000000000000000000000000000000000000000000815260040161057190610a12565b60405180910390fd5b6000600360006101000a81548160ff021916908315150217905550565b6000600460003373ffffffffffffffffffffffffffffffffffffffff1673ffffffffffffffffffffffffffffffffffffffff1681526020019081526020016000205414610619576040517f08c379a0000000000000000000000000000000000000000000000000000000008152600401610610906109f2565b60405180910390fd5b60011515600360009054906101000a900460ff1615151461066f576040517f08c379a000000000000000000000000000000000000000000000000000000000815260040161066690610a52565b60405180910390fd5b600460003373ffffffffffffffffffffffffffffffffffffffff1673ffffffffffffffffffffffffffffffffffffffff16815260200190815260200160002060008154809291906106bf90610ba0565b91905055506005600082815260200190815260200160002060008154809291906106e890610ba0565b919050555050565b6060600180546106ff90610b6e565b80601f016020809104026020016040519081016040528092919081815260200182805461072b90610b6e565b80156107785780601f1061074d57610100808354040283529160200191610778565b820191906000526020600020905b81548152906001019060200180831161075b57829003601f168201915b5050505050905090565b60008135905061079181610d01565b92915050565b6000602082840312156107ad576107ac610c47565b5b60006107bb84828501610782565b91505092915050565b60006107d0838361086b565b905092915050565b6107e181610af3565b82525050565b60006107f282610a9d565b6107fc8185610ac0565b93508360208202850161080e85610a8d565b8060005b8581101561084a578484038952815161082b85826107c4565b945061083683610ab3565b925060208a01995050600181019050610812565b50829750879550505050505092915050565b61086581610b05565b82525050565b600061087682610aa8565b6108808185610ad1565b9350610890818560208601610b3b565b61089981610c4c565b840191505092915050565b60006108af82610aa8565b6108b98185610ae2565b93506108c9818560208601610b3b565b6108d281610c4c565b840191505092915050565b60006108ea601c83610ae2565b91506108f582610c5d565b602082019050919050565b600061090d602083610ae2565b915061091882610c86565b602082019050919050565b6000610930601183610ae2565b915061093b82610caf565b602082019050919050565b6000610953601e83610ae2565b915061095e82610cd8565b602082019050919050565b61097281610b31565b82525050565b600060208201905061098d60008301846107d8565b92915050565b600060208201905081810360008301526109ad81846107e7565b905092915050565b60006020820190506109ca600083018461085c565b92915050565b600060208201905081810360008301526109ea81846108a4565b905092915050565b60006020820190508181036000830152610a0b816108dd565b9050919050565b60006020820190508181036000830152610a2b81610900565b9050919050565b60006020820190508181036000830152610a4b81610923565b9050919050565b60006020820190508181036000830152610a6b81610946565b9050919050565b6000602082019050610a876000830184610969565b92915050565b6000819050602082019050919050565b600081519050919050565b600081519050919050565b6000602082019050919050565b600082825260208201905092915050565b600082825260208201905092915050565b600082825260208201905092915050565b6000610afe82610b11565b9050919050565b60008115159050919050565b600073ffffffffffffffffffffffffffffffffffffffff82169050919050565b6000819050919050565b60005b83811015610b59578082015181840152602081019050610b3e565b83811115610b68576000848401525b50505050565b60006002820490506001821680610b8657607f821691505b60208210811415610b9a57610b99610c18565b5b50919050565b6000610bab82610b31565b91507fffffffffffffffffffffffffffffffffffffffffffffffffffffffffffffffff821415610bde57610bdd610be9565b5b600182019050919050565b7f4e487b7100000000000000000000000000000000000000000000000000000000600052601160045260246000fd5b7f4e487b7100000000000000000000000000000000000000000000000000000000600052602260045260246000fd5b600080fd5b6000601f19601f8301169050919050565b7f43616e2774206a6f696e20747769636520696e206f6e6520706f6c6c00000000600082015250565b7f5468697320766f74696e67207761732066696e6973686564206265666f72652e600082015250565b7f596f75277265206e6f74206f776e657221000000000000000000000000000000600082015250565b7f5468697320766f746520697320616c72656164792066696e69736865642e0000600082015250565b610d0a81610b31565b8114610d1557600080fd5b5056fea2646970667358221220dabe51d28871bc370c376c38a5e48e88ef66354970261fe17001e42d37157f6b64736f6c63430008070033",
    "immutableReferences": {},
    "source": "// SPDX-License-Identifier: MIT\n\npragma solidity ^0.8.4;\npragma experimental ABIEncoderV2;\n\nimport \"./VotingFactory.sol\";\n\ncontract VotingPoll {\n\n    address private owner;\n    string public votingTitle;\n    string[] public options;\n    bool public votingStatus;\n    mapping(address => uint) multipleCheck;\n    mapping(uint => uint) votingResult;\n\n    constructor (address _creater, string memory _title, string[] memory _options) {\n        owner = _creater;\n        votingTitle = _title;\n        options = _options;\n        votingStatus = true;\n    }\n\n    function getOwner() external view returns(address) {\n        return owner;\n    }\n\n    function getTitle() external view returns(string memory) {\n        return votingTitle;\n    }\n\n    function getOptions() external view returns(string[] memory) {\n        return options;\n    }\n    \n    function getStatus() external view returns(bool) {\n        return votingStatus;\n    }\n\n    function getOptionCounts() external view returns(uint) {\n        return options.length;\n    }\n\n    function getResult(uint _id) external view returns(uint) {\n        return votingResult[_id];\n    }\n\n    function pauseVoting () external {\n        require(msg.sender == owner, \"You're not owner!\");\n        require(votingStatus == true, \"This voting was finished before.\");\n        votingStatus = false;\n    }\n\n    function voting(uint _value) external {\n        require(multipleCheck[msg.sender] == 0 , \"Can't join twice in one poll\");\n        require(votingStatus == true, \"This vote is already finished.\");\n        multipleCheck[msg.sender] ++;\n        votingResult[_value]++;\n    }\n}",
    "sourcePath": "E:\\git\\sugarlandContracts\\voting-contract\\contracts\\VotingPoll.sol",
    "compiler": {
        "name": "solc",
        "version": "0.8.7+commit.e28d00a7.Emscripten.clang"
    },
    "schemaVersion": "3.4.4",
    "updatedAt": "2022-06-10T18:16:47.619Z",
    "devdoc": {
        "kind": "dev",
        "methods": {},
        "version": 1
    },
    "userdoc": {
        "kind": "user",
        "methods": {},
        "version": 1
    }
}